{
  "contractName": "Market",
  "abi": [
    {
      "anonymous": false,
      "inputs": [
        {
          "indexed": true,
          "internalType": "address",
          "name": "nftAddress",
          "type": "address"
        },
        {
          "indexed": true,
          "internalType": "uint256",
          "name": "tokenId",
          "type": "uint256"
        },
        {
          "indexed": true,
          "internalType": "uint256",
          "name": "itemId",
          "type": "uint256"
        },
        {
          "indexed": false,
          "internalType": "address",
          "name": "seller",
          "type": "address"
        },
        {
          "indexed": false,
          "internalType": "address",
          "name": "owner",
          "type": "address"
        },
        {
          "indexed": false,
          "internalType": "uint256",
          "name": "price",
          "type": "uint256"
        },
        {
          "indexed": false,
          "internalType": "enum Market.State",
          "name": "state",
          "type": "uint8"
        }
      ],
      "name": "NftListed",
      "type": "event"
    },
    {
      "anonymous": false,
      "inputs": [
        {
          "indexed": false,
          "internalType": "uint256",
          "name": "_itemId",
          "type": "uint256"
        }
      ],
      "name": "NftPurchased",
      "type": "event"
    },
    {
      "inputs": [
        {
          "internalType": "uint256",
          "name": "",
          "type": "uint256"
        }
      ],
      "name": "nftMap",
      "outputs": [
        {
          "internalType": "address",
          "name": "nftAddress",
          "type": "address"
        },
        {
          "internalType": "uint256",
          "name": "tokenId",
          "type": "uint256"
        },
        {
          "internalType": "uint256",
          "name": "itemId",
          "type": "uint256"
        },
        {
          "internalType": "address payable",
          "name": "seller",
          "type": "address"
        },
        {
          "internalType": "address payable",
          "name": "owner",
          "type": "address"
        },
        {
          "internalType": "uint256",
          "name": "price",
          "type": "uint256"
        },
        {
          "internalType": "enum Market.State",
          "name": "state",
          "type": "uint8"
        }
      ],
      "stateMutability": "view",
      "type": "function",
      "constant": true
    },
    {
      "inputs": [
        {
          "internalType": "address",
          "name": "",
          "type": "address"
        },
        {
          "internalType": "address",
          "name": "",
          "type": "address"
        },
        {
          "internalType": "uint256",
          "name": "",
          "type": "uint256"
        },
        {
          "internalType": "bytes",
          "name": "",
          "type": "bytes"
        }
      ],
      "name": "onERC721Received",
      "outputs": [
        {
          "internalType": "bytes4",
          "name": "",
          "type": "bytes4"
        }
      ],
      "stateMutability": "nonpayable",
      "type": "function"
    },
    {
      "inputs": [
        {
          "internalType": "address",
          "name": "nftAddress",
          "type": "address"
        },
        {
          "internalType": "uint256",
          "name": "_tokenId",
          "type": "uint256"
        },
        {
          "internalType": "uint256",
          "name": "price",
          "type": "uint256"
        }
      ],
      "name": "addToMarket",
      "outputs": [],
      "stateMutability": "nonpayable",
      "type": "function"
    },
    {
      "inputs": [
        {
          "internalType": "address",
          "name": "nftAddress",
          "type": "address"
        },
        {
          "internalType": "uint256",
          "name": "_itemId",
          "type": "uint256"
        }
      ],
      "name": "purchaseNft",
      "outputs": [],
      "stateMutability": "payable",
      "type": "function",
      "payable": true
    },
    {
      "inputs": [
        {
          "internalType": "uint256",
          "name": "_itemId",
          "type": "uint256"
        }
      ],
      "name": "fetchItem",
      "outputs": [
        {
          "internalType": "address",
          "name": "nftAddress",
          "type": "address"
        },
        {
          "internalType": "uint256",
          "name": "tokenId",
          "type": "uint256"
        },
        {
          "internalType": "uint256",
          "name": "itemId",
          "type": "uint256"
        },
        {
          "internalType": "address",
          "name": "seller",
          "type": "address"
        },
        {
          "internalType": "address",
          "name": "owner",
          "type": "address"
        },
        {
          "internalType": "uint256",
          "name": "price",
          "type": "uint256"
        }
      ],
      "stateMutability": "view",
      "type": "function",
      "constant": true
    },
    {
      "inputs": [
        {
          "internalType": "uint256",
          "name": "_itemId",
          "type": "uint256"
        }
      ],
      "name": "getItemById",
      "outputs": [
        {
          "components": [
            {
              "internalType": "address",
              "name": "nftAddress",
              "type": "address"
            },
            {
              "internalType": "uint256",
              "name": "tokenId",
              "type": "uint256"
            },
            {
              "internalType": "uint256",
              "name": "itemId",
              "type": "uint256"
            },
            {
              "internalType": "address payable",
              "name": "seller",
              "type": "address"
            },
            {
              "internalType": "address payable",
              "name": "owner",
              "type": "address"
            },
            {
              "internalType": "uint256",
              "name": "price",
              "type": "uint256"
            },
            {
              "internalType": "enum Market.State",
              "name": "state",
              "type": "uint8"
            }
          ],
          "internalType": "struct Market.Item",
          "name": "",
          "type": "tuple"
        }
      ],
      "stateMutability": "view",
      "type": "function",
      "constant": true
    },
    {
      "inputs": [
        {
          "internalType": "uint256",
          "name": "_itemId",
          "type": "uint256"
        }
      ],
      "name": "getItemPrice",
      "outputs": [
        {
          "internalType": "uint256",
          "name": "price",
          "type": "uint256"
        }
      ],
      "stateMutability": "view",
      "type": "function",
      "constant": true
    },
    {
      "inputs": [],
      "name": "getListedItems",
      "outputs": [
        {
          "components": [
            {
              "internalType": "address",
              "name": "nftAddress",
              "type": "address"
            },
            {
              "internalType": "uint256",
              "name": "tokenId",
              "type": "uint256"
            },
            {
              "internalType": "uint256",
              "name": "itemId",
              "type": "uint256"
            },
            {
              "internalType": "address payable",
              "name": "seller",
              "type": "address"
            },
            {
              "internalType": "address payable",
              "name": "owner",
              "type": "address"
            },
            {
              "internalType": "uint256",
              "name": "price",
              "type": "uint256"
            },
            {
              "internalType": "enum Market.State",
              "name": "state",
              "type": "uint8"
            }
          ],
          "internalType": "struct Market.Item[]",
          "name": "",
          "type": "tuple[]"
        }
      ],
      "stateMutability": "view",
      "type": "function",
      "constant": true
    }
  ],
  "bytecode": "0x608060405234801561001057600080fd5b506001600081905550611fe2806100286000396000f3fe608060405260043610610098576000357c0100000000000000000000000000000000000000000000000000000000900480637595af3e1161006b5780637595af3e14610176578063ad4b9cfb1461019f578063caf50690146101e1578063cd2f07101461020c57610098565b80630f9b518c1461009d578063150b7a02146100e05780634c4df8701461011d5780635a0b17b01461015a575b600080fd5b3480156100a957600080fd5b506100c460048036038101906100bf919061158e565b610249565b6040516100d79796959493929190611acb565b60405180910390f35b3480156100ec57600080fd5b5061010760048036038101906101029190611488565b6102f8565b6040516101149190611bbd565b60405180910390f35b34801561012957600080fd5b50610144600480360381019061013f919061158e565b610328565b6040516101519190611cb3565b60405180910390f35b610174600480360381019061016f9190611503565b610348565b005b34801561018257600080fd5b5061019d6004803603810190610198919061153f565b610873565b005b3480156101ab57600080fd5b506101c660048036038101906101c1919061158e565b610bc3565b6040516101d896959493929190611b3a565b60405180910390f35b3480156101ed57600080fd5b506101f6610ccb565b6040516102039190611b9b565b60405180910390f35b34801561021857600080fd5b50610233600480360381019061022e919061158e565b611147565b6040516102409190611c98565b60405180910390f35b60026020528060005260406000206000915090508060000160009054906101000a900473ffffffffffffffffffffffffffffffffffffffff16908060010154908060020154908060030160009054906101000a900473ffffffffffffffffffffffffffffffffffffffff16908060040160009054906101000a900473ffffffffffffffffffffffffffffffffffffffff16908060050154908060060160009054906101000a900460ff16905087565b600063150b7a027c0100000000000000000000000000000000000000000000000000000000029050949350505050565b600060026000838152602001908152602001600020600501549050919050565b6002600054141561038e576040517f08c379a000000000000000000000000000000000000000000000000000000000815260040161038590611c58565b60405180910390fd5b60026000819055503373ffffffffffffffffffffffffffffffffffffffff166002600083815260200190815260200160002060040160009054906101000a900473ffffffffffffffffffffffffffffffffffffffff1673ffffffffffffffffffffffffffffffffffffffff16141561043b576040517f08c379a000000000000000000000000000000000000000000000000000000000815260040161043290611bf8565b60405180910390fd5b600180811115610474577f4e487b7100000000000000000000000000000000000000000000000000000000600052602160045260246000fd5b6002600083815260200190815260200160002060060160009054906101000a900460ff1660018111156104d0577f4e487b7100000000000000000000000000000000000000000000000000000000600052602160045260246000fd5b14610510576040517f08c379a000000000000000000000000000000000000000000000000000000000815260040161050790611c38565b60405180910390fd5b60026000828152602001908152602001600020600501543414610568576040517f08c379a000000000000000000000000000000000000000000000000000000000815260040161055f90611c78565b60405180910390fd5b8173ffffffffffffffffffffffffffffffffffffffff166342842e0e303360026000868152602001908152602001600020600101546040518463ffffffff167c01000000000000000000000000000000000000000000000000000000000281526004016105d793929190611a26565b600060405180830381600087803b1580156105f157600080fd5b505af1158015610605573d6000803e3d6000fd5b505050508173ffffffffffffffffffffffffffffffffffffffff1663a22cb4653360016040518363ffffffff167c0100000000000000000000000000000000000000000000000000000000028152600401610661929190611aa2565b600060405180830381600087803b15801561067b57600080fd5b505af115801561068f573d6000803e3d6000fd5b50505050336002600083815260200190815260200160002060040160006101000a81548173ffffffffffffffffffffffffffffffffffffffff021916908373ffffffffffffffffffffffffffffffffffffffff16021790555060006002600083815260200190815260200160002060060160006101000a81548160ff02191690836001811115610748577f4e487b7100000000000000000000000000000000000000000000000000000000600052602160045260246000fd5b021790555060006002600083815260200190815260200160002060030160009054906101000a900473ffffffffffffffffffffffffffffffffffffffff1673ffffffffffffffffffffffffffffffffffffffff16346040516107a990611a11565b60006040518083038185875af1925050503d80600081146107e6576040519150601f19603f3d011682016040523d82523d6000602084013e6107eb565b606091505b505090508061082f576040517f08c379a000000000000000000000000000000000000000000000000000000000815260040161082690611bd8565b60405180910390fd5b7fd310146b3bfb157d0398c13c6148e51703d73af19167735ab2be4230a2c609758260405161085e9190611cb3565b60405180910390a15060016000819055505050565b600081116108b6576040517f08c379a00000000000000000000000000000000000000000000000000000000081526004016108ad90611c18565b60405180910390fd5b6108c0600161131b565b60006108cc6001611331565b90506040518060e001604052808573ffffffffffffffffffffffffffffffffffffffff1681526020018481526020018281526020013373ffffffffffffffffffffffffffffffffffffffff1681526020013373ffffffffffffffffffffffffffffffffffffffff168152602001838152602001600180811115610978577f4e487b7100000000000000000000000000000000000000000000000000000000600052602160045260246000fd5b8152506002600083815260200190815260200160002060008201518160000160006101000a81548173ffffffffffffffffffffffffffffffffffffffff021916908373ffffffffffffffffffffffffffffffffffffffff160217905550602082015181600101556040820151816002015560608201518160030160006101000a81548173ffffffffffffffffffffffffffffffffffffffff021916908373ffffffffffffffffffffffffffffffffffffffff16021790555060808201518160040160006101000a81548173ffffffffffffffffffffffffffffffffffffffff021916908373ffffffffffffffffffffffffffffffffffffffff16021790555060a0820151816005015560c08201518160060160006101000a81548160ff02191690836001811115610ad2577f4e487b7100000000000000000000000000000000000000000000000000000000600052602160045260246000fd5b02179055509050508373ffffffffffffffffffffffffffffffffffffffff166342842e0e3330866040518463ffffffff167c0100000000000000000000000000000000000000000000000000000000028152600401610b3393929190611a26565b600060405180830381600087803b158015610b4d57600080fd5b505af1158015610b61573d6000803e3d6000fd5b5050505080838573ffffffffffffffffffffffffffffffffffffffff167f60c443f4a570316d25efb19bbea79aa2e9e913df5829d854c22ca9203dbff847336000876001604051610bb59493929190611a5d565b60405180910390a450505050565b6000806000806000806002600088815260200190815260200160002060000160009054906101000a900473ffffffffffffffffffffffffffffffffffffffff16955060026000888152602001908152602001600020600101549450600260008881526020019081526020016000206002015493506002600088815260200190815260200160002060030160009054906101000a900473ffffffffffffffffffffffffffffffffffffffff1692506002600088815260200190815260200160002060040160009054906101000a900473ffffffffffffffffffffffffffffffffffffffff1691506002600088815260200190815260200160002060050154905091939550919395565b60606000610cd96001611331565b905060008060005b83811015610db257600180811115610d22577f4e487b7100000000000000000000000000000000000000000000000000000000600052602160045260246000fd5b60026000600184610d339190611d84565b815260200190815260200160002060060160009054906101000a900460ff166001811115610d8a577f4e487b7100000000000000000000000000000000000000000000000000000000600052602160045260246000fd5b1415610d9f578280610d9b90611e94565b9350505b8080610daa90611e94565b915050610ce1565b5060008267ffffffffffffffff811115610df5577f4e487b7100000000000000000000000000000000000000000000000000000000600052604160045260246000fd5b604051908082528060200260200182016040528015610e2e57816020015b610e1b61133f565b815260200190600190039081610e135790505b50905060005b8481101561113c57600180811115610e75577f4e487b7100000000000000000000000000000000000000000000000000000000600052602160045260246000fd5b60026000600184610e869190611d84565b815260200190815260200160002060060160009054906101000a900460ff166001811115610edd577f4e487b7100000000000000000000000000000000000000000000000000000000600052602160045260246000fd5b141561112957600060026000600184610ef69190611d84565b81526020019081526020016000206002015490506000600260008381526020019081526020016000209050806040518060e00160405290816000820160009054906101000a900473ffffffffffffffffffffffffffffffffffffffff1673ffffffffffffffffffffffffffffffffffffffff1673ffffffffffffffffffffffffffffffffffffffff16815260200160018201548152602001600282015481526020016003820160009054906101000a900473ffffffffffffffffffffffffffffffffffffffff1673ffffffffffffffffffffffffffffffffffffffff1673ffffffffffffffffffffffffffffffffffffffff1681526020016004820160009054906101000a900473ffffffffffffffffffffffffffffffffffffffff1673ffffffffffffffffffffffffffffffffffffffff1673ffffffffffffffffffffffffffffffffffffffff168152602001600582015481526020016006820160009054906101000a900460ff166001811115611098577f4e487b7100000000000000000000000000000000000000000000000000000000600052602160045260246000fd5b60018111156110d0577f4e487b7100000000000000000000000000000000000000000000000000000000600052602160045260246000fd5b8152505084868151811061110d577f4e487b7100000000000000000000000000000000000000000000000000000000600052603260045260246000fd5b6020026020010181905250848061112390611e94565b95505050505b808061113490611e94565b915050610e34565b508094505050505090565b61114f61133f565b600260008381526020019081526020016000206040518060e00160405290816000820160009054906101000a900473ffffffffffffffffffffffffffffffffffffffff1673ffffffffffffffffffffffffffffffffffffffff1673ffffffffffffffffffffffffffffffffffffffff16815260200160018201548152602001600282015481526020016003820160009054906101000a900473ffffffffffffffffffffffffffffffffffffffff1673ffffffffffffffffffffffffffffffffffffffff1673ffffffffffffffffffffffffffffffffffffffff1681526020016004820160009054906101000a900473ffffffffffffffffffffffffffffffffffffffff1673ffffffffffffffffffffffffffffffffffffffff1673ffffffffffffffffffffffffffffffffffffffff168152602001600582015481526020016006820160009054906101000a900460ff1660018111156112d8577f4e487b7100000000000000000000000000000000000000000000000000000000600052602160045260246000fd5b6001811115611310577f4e487b7100000000000000000000000000000000000000000000000000000000600052602160045260246000fd5b815250509050919050565b6001816000016000828254019250508190555050565b600081600001549050919050565b6040518060e00160405280600073ffffffffffffffffffffffffffffffffffffffff1681526020016000815260200160008152602001600073ffffffffffffffffffffffffffffffffffffffff168152602001600073ffffffffffffffffffffffffffffffffffffffff16815260200160008152602001600060018111156113f0577f4e487b7100000000000000000000000000000000000000000000000000000000600052602160045260246000fd5b81525090565b600061140961140484611cff565b611cce565b90508281526020810184848401111561142157600080fd5b61142c848285611e85565b509392505050565b60008135905061144381611f7e565b92915050565b600082601f83011261145a57600080fd5b813561146a8482602086016113f6565b91505092915050565b60008135905061148281611f95565b92915050565b6000806000806080858703121561149e57600080fd5b60006114ac87828801611434565b94505060206114bd87828801611434565b93505060406114ce87828801611473565b925050606085013567ffffffffffffffff8111156114eb57600080fd5b6114f787828801611449565b91505092959194509250565b6000806040838503121561151657600080fd5b600061152485828601611434565b925050602061153585828601611473565b9150509250929050565b60008060006060848603121561155457600080fd5b600061156286828701611434565b935050602061157386828701611473565b925050604061158486828701611473565b9150509250925092565b6000602082840312156115a057600080fd5b60006115ae84828501611473565b91505092915050565b60006115c383836118d7565b60e08301905092915050565b6115d881611dec565b82525050565b6115e781611dec565b82525050565b6115f681611dda565b82525050565b61160581611dda565b82525050565b600061161682611d3f565b6116208185611d57565b935061162b83611d2f565b8060005b8381101561165c57815161164388826115b7565b975061164e83611d4a565b92505060018101905061162f565b5085935050505092915050565b61167281611dfe565b82525050565b61168181611e0a565b82525050565b61169081611e73565b82525050565b61169f81611e73565b82525050565b60006116b2602583611d73565b91507f4661696c656420746f207472616e736665722045746820746f2074686520736560008301527f6c6c65722e0000000000000000000000000000000000000000000000000000006020830152604082019050919050565b6000611718602d83611d73565b91507f427579657220616e642053656c6c65722063616e6e6f7420626520746865207360008301527f616d6520616464726573736573000000000000000000000000000000000000006020830152604082019050919050565b600061177e602083611d73565b91507f5072696365206d7573742062652067726561746572207468616e207a65726f2e6000830152602082019050919050565b60006117be600083611d68565b9150600082019050919050565b60006117d8602683611d73565b91507f4974656d20726571756573746564206973206e6f74206c697374656420666f7260008301527f2073616c652e00000000000000000000000000000000000000000000000000006020830152604082019050919050565b600061183e601f83611d73565b91507f5265656e7472616e637947756172643a207265656e7472616e742063616c6c006000830152602082019050919050565b600061187e602a83611d73565b91507f506c65617365207375626d69742074686520636f727265637420616d6f756e7460008301527f206f662065746865722e000000000000000000000000000000000000000000006020830152604082019050919050565b60e0820160008201516118ed60008501826115ed565b50602082015161190060208501826119f3565b50604082015161191360408501826119f3565b50606082015161192660608501826115cf565b50608082015161193960808501826115cf565b5060a082015161194c60a08501826119f3565b5060c082015161195f60c0850182611687565b50505050565b60e08201600082015161197b60008501826115ed565b50602082015161198e60208501826119f3565b5060408201516119a160408501826119f3565b5060608201516119b460608501826115cf565b5060808201516119c760808501826115cf565b5060a08201516119da60a08501826119f3565b5060c08201516119ed60c0850182611687565b50505050565b6119fc81611e69565b82525050565b611a0b81611e69565b82525050565b6000611a1c826117b1565b9150819050919050565b6000606082019050611a3b60008301866115fc565b611a4860208301856115fc565b611a556040830184611a02565b949350505050565b6000608082019050611a7260008301876115fc565b611a7f60208301866115fc565b611a8c6040830185611a02565b611a996060830184611696565b95945050505050565b6000604082019050611ab760008301856115fc565b611ac46020830184611669565b9392505050565b600060e082019050611ae0600083018a6115fc565b611aed6020830189611a02565b611afa6040830188611a02565b611b0760608301876115de565b611b1460808301866115de565b611b2160a0830185611a02565b611b2e60c0830184611696565b98975050505050505050565b600060c082019050611b4f60008301896115fc565b611b5c6020830188611a02565b611b696040830187611a02565b611b7660608301866115fc565b611b8360808301856115fc565b611b9060a0830184611a02565b979650505050505050565b60006020820190508181036000830152611bb5818461160b565b905092915050565b6000602082019050611bd26000830184611678565b92915050565b60006020820190508181036000830152611bf1816116a5565b9050919050565b60006020820190508181036000830152611c118161170b565b9050919050565b60006020820190508181036000830152611c3181611771565b9050919050565b60006020820190508181036000830152611c51816117cb565b9050919050565b60006020820190508181036000830152611c7181611831565b9050919050565b60006020820190508181036000830152611c9181611871565b9050919050565b600060e082019050611cad6000830184611965565b92915050565b6000602082019050611cc86000830184611a02565b92915050565b6000604051905081810181811067ffffffffffffffff82111715611cf557611cf4611f3b565b5b8060405250919050565b600067ffffffffffffffff821115611d1a57611d19611f3b565b5b601f19601f8301169050602081019050919050565b6000819050602082019050919050565b600081519050919050565b6000602082019050919050565b600082825260208201905092915050565b600081905092915050565b600082825260208201905092915050565b6000611d8f82611e69565b9150611d9a83611e69565b9250827fffffffffffffffffffffffffffffffffffffffffffffffffffffffffffffffff03821115611dcf57611dce611edd565b5b828201905092915050565b6000611de582611e49565b9050919050565b6000611df782611e49565b9050919050565b60008115159050919050565b60007fffffffff0000000000000000000000000000000000000000000000000000000082169050919050565b6000819050611e4482611f6a565b919050565b600073ffffffffffffffffffffffffffffffffffffffff82169050919050565b6000819050919050565b6000611e7e82611e36565b9050919050565b82818337600083830152505050565b6000611e9f82611e69565b91507fffffffffffffffffffffffffffffffffffffffffffffffffffffffffffffffff821415611ed257611ed1611edd565b5b600182019050919050565b7f4e487b7100000000000000000000000000000000000000000000000000000000600052601160045260246000fd5b7f4e487b7100000000000000000000000000000000000000000000000000000000600052602160045260246000fd5b7f4e487b7100000000000000000000000000000000000000000000000000000000600052604160045260246000fd5b60028110611f7b57611f7a611f0c565b5b50565b611f8781611dda565b8114611f9257600080fd5b50565b611f9e81611e69565b8114611fa957600080fd5b5056fea2646970667358221220853937aed6f76990b9ab1c13a011dfb0c41d86b15cc77c754ff31921738b448564736f6c63430008000033",
  "immutableReferences": {},
  "source": "// SPDX-License-Identifier: MIT\npragma solidity ^0.8.0;\n\nimport \"@openzeppelin/contracts/token/ERC721/ERC721.sol\";\nimport \"@openzeppelin/contracts/token/ERC721/utils/ERC721Holder.sol\";\nimport \"@openzeppelin/contracts/utils/Counters.sol\";\nimport '@openzeppelin/contracts/security/ReentrancyGuard.sol';\n\ncontract Market is ERC721Holder, ReentrancyGuard{\n    using Counters for Counters.Counter;\n    Counters.Counter private _itemIds;\n\n    mapping(uint => Item) public nftMap;\n\n    enum State {notForSale, ForSale}\n\n    struct Item {\n        address nftAddress;\n        uint tokenId;\n        uint itemId;\n        address payable seller;\n        address payable owner;\n        uint price;\n        State state;\n    }\n\n    /**\n    Events\n     */\n    event NftListed(\n        address indexed nftAddress,\n        uint indexed tokenId,\n        uint indexed itemId,\n        address seller,\n        address owner,\n        uint price,\n        State state\n    );   \n\n    event NftPurchased(uint _itemId);\n\n    function addToMarket(address nftAddress, uint _tokenId, uint price) public {\n        require(price > 0, \"Price must be greater than zero.\");\n        \n        _itemIds.increment();\n        uint newItemId = _itemIds.current();\n        nftMap[newItemId] = Item({\n            nftAddress: nftAddress,\n            tokenId: _tokenId,\n            itemId: newItemId,\n            seller: payable(msg.sender),\n            owner: payable(msg.sender),\n            price: price,\n            state: State.ForSale\n        });\n\n        IERC721(nftAddress).safeTransferFrom(msg.sender, address(this), _tokenId);\n\n        emit NftListed(nftAddress, _tokenId, newItemId, msg.sender, address(0), price, State.ForSale);\n    }\n\n    function purchaseNft(address nftAddress, uint _itemId) public payable nonReentrant {\n        require(nftMap[_itemId].owner != msg.sender, 'Buyer and Seller cannot be the same addresses');\n        require(nftMap[_itemId].state == State.ForSale, 'Item requested is not listed for sale.');\n        require(msg.value == nftMap[_itemId].price, 'Please submit the correct amount of ether.');\n\n        IERC721(nftAddress).safeTransferFrom(address(this), msg.sender, nftMap[_itemId].tokenId);\n        IERC721(nftAddress).setApprovalForAll(msg.sender, true);\n        nftMap[_itemId].owner = payable(msg.sender);\n        nftMap[_itemId].state = State.notForSale;\n\n        (bool salePriceTransferred, ) = nftMap[_itemId].seller.call{ value: msg.value }('');\n        require(salePriceTransferred, 'Failed to transfer Eth to the seller.');\n\n        emit NftPurchased(_itemId);\n    }\n\n    /**\n    Read Functions\n    */\n   function fetchItem(uint _itemId) public view returns (address nftAddress, uint tokenId, uint itemId, address seller, address owner, uint price) {\n        nftAddress = nftMap[_itemId].nftAddress;\n        tokenId = nftMap[_itemId].tokenId;\n        itemId = nftMap[_itemId].itemId;\n        seller = nftMap[_itemId].seller;\n        owner = nftMap[_itemId].owner;\n        price = nftMap[_itemId].price;\n\n        return (nftAddress, tokenId, itemId, seller, owner, price);\n    }\n\n    function getItemById(uint _itemId) public view returns (Item memory) {\n        return nftMap[_itemId];\n    }\n\n    function getItemPrice(uint _itemId) public view returns (uint price) {\n        return nftMap[_itemId].price;\n    }\n\n    function getListedItems() public view returns (Item[] memory) {\n        uint totalItemCount = _itemIds.current();\n        uint itemsListedCount = 0;\n        uint resultItemId = 0;\n\n        for (uint i = 0; i < totalItemCount; i++) {\n            if (nftMap[i + 1].state == State.ForSale) {\n                itemsListedCount++;\n            }\n        }   \n\n        Item[] memory listedItems = new Item[](itemsListedCount);\n        for (uint i = 0; i < totalItemCount; i++) {\n        if (nftMap[i + 1].state == State.ForSale) {\n            uint thisItemId = nftMap[i + 1].itemId;\n            Item storage thisItem = nftMap[thisItemId];\n            listedItems[resultItemId] = thisItem;\n            resultItemId++;\n            }\n        }\n        return listedItems;\n    }\n}",
  "sourcePath": "/mnt/c/Users/Ed/Desktop/consensys2021/exercises/finalProject/blockchain/contracts/Market.sol",
  "compiler": {
    "name": "solc",
    "version": "0.8.0+commit.c7dfd78e.Emscripten.clang"
  },
  "schemaVersion": "3.4.3",
  "updatedAt": "2021-12-08T15:28:16.077Z",
  "networkType": "ethereum",
  "devdoc": {
    "kind": "dev",
    "methods": {
      "onERC721Received(address,address,uint256,bytes)": {
        "details": "See {IERC721Receiver-onERC721Received}. Always returns `IERC721Receiver.onERC721Received.selector`."
      }
    },
    "version": 1
  },
  "userdoc": {
    "events": {
      "NftListed(address,uint256,uint256,address,address,uint256,uint8)": {
        "notice": "Events"
      }
    },
    "kind": "user",
    "methods": {
      "fetchItem(uint256)": {
        "notice": "Read Functions"
      }
    },
    "version": 1
  }
}