{
  "contractName": "Market",
  "abi": [
    {
      "anonymous": false,
      "inputs": [
        {
          "indexed": true,
          "internalType": "address",
          "name": "nftAddress",
          "type": "address"
        },
        {
          "indexed": true,
          "internalType": "uint256",
          "name": "tokenId",
          "type": "uint256"
        },
        {
          "indexed": true,
          "internalType": "uint256",
          "name": "itemId",
          "type": "uint256"
        },
        {
          "indexed": false,
          "internalType": "address",
          "name": "seller",
          "type": "address"
        },
        {
          "indexed": false,
          "internalType": "address",
          "name": "owner",
          "type": "address"
        },
        {
          "indexed": false,
          "internalType": "uint256",
          "name": "price",
          "type": "uint256"
        },
        {
          "indexed": false,
          "internalType": "enum Market.State",
          "name": "state",
          "type": "uint8"
        }
      ],
      "name": "NftListed",
      "type": "event"
    },
    {
      "anonymous": false,
      "inputs": [
        {
          "indexed": false,
          "internalType": "uint256",
          "name": "_itemId",
          "type": "uint256"
        }
      ],
      "name": "NftPurchased",
      "type": "event"
    },
    {
      "inputs": [
        {
          "internalType": "uint256",
          "name": "",
          "type": "uint256"
        }
      ],
      "name": "nftMap",
      "outputs": [
        {
          "internalType": "address",
          "name": "nftAddress",
          "type": "address"
        },
        {
          "internalType": "uint256",
          "name": "tokenId",
          "type": "uint256"
        },
        {
          "internalType": "uint256",
          "name": "itemId",
          "type": "uint256"
        },
        {
          "internalType": "address payable",
          "name": "seller",
          "type": "address"
        },
        {
          "internalType": "address payable",
          "name": "owner",
          "type": "address"
        },
        {
          "internalType": "uint256",
          "name": "price",
          "type": "uint256"
        },
        {
          "internalType": "enum Market.State",
          "name": "state",
          "type": "uint8"
        }
      ],
      "stateMutability": "view",
      "type": "function",
      "constant": true
    },
    {
      "inputs": [
        {
          "internalType": "address",
          "name": "",
          "type": "address"
        },
        {
          "internalType": "address",
          "name": "",
          "type": "address"
        },
        {
          "internalType": "uint256",
          "name": "",
          "type": "uint256"
        },
        {
          "internalType": "bytes",
          "name": "",
          "type": "bytes"
        }
      ],
      "name": "onERC721Received",
      "outputs": [
        {
          "internalType": "bytes4",
          "name": "",
          "type": "bytes4"
        }
      ],
      "stateMutability": "nonpayable",
      "type": "function"
    },
    {
      "inputs": [
        {
          "internalType": "address",
          "name": "nftAddress",
          "type": "address"
        },
        {
          "internalType": "uint256",
          "name": "_tokenId",
          "type": "uint256"
        },
        {
          "internalType": "uint256",
          "name": "price",
          "type": "uint256"
        }
      ],
      "name": "addToMarket",
      "outputs": [],
      "stateMutability": "nonpayable",
      "type": "function"
    },
    {
      "inputs": [
        {
          "internalType": "address",
          "name": "nftAddress",
          "type": "address"
        },
        {
          "internalType": "uint256",
          "name": "_itemId",
          "type": "uint256"
        }
      ],
      "name": "purchaseNft",
      "outputs": [],
      "stateMutability": "payable",
      "type": "function",
      "payable": true
    },
    {
      "inputs": [
        {
          "internalType": "uint256",
          "name": "_itemId",
          "type": "uint256"
        }
      ],
      "name": "fetchItem",
      "outputs": [
        {
          "internalType": "address",
          "name": "nftAddress",
          "type": "address"
        },
        {
          "internalType": "uint256",
          "name": "tokenId",
          "type": "uint256"
        },
        {
          "internalType": "uint256",
          "name": "itemId",
          "type": "uint256"
        },
        {
          "internalType": "address",
          "name": "seller",
          "type": "address"
        },
        {
          "internalType": "address",
          "name": "owner",
          "type": "address"
        },
        {
          "internalType": "uint256",
          "name": "price",
          "type": "uint256"
        }
      ],
      "stateMutability": "view",
      "type": "function",
      "constant": true
    },
    {
      "inputs": [
        {
          "internalType": "uint256",
          "name": "_itemId",
          "type": "uint256"
        }
      ],
      "name": "getItemById",
      "outputs": [
        {
          "components": [
            {
              "internalType": "address",
              "name": "nftAddress",
              "type": "address"
            },
            {
              "internalType": "uint256",
              "name": "tokenId",
              "type": "uint256"
            },
            {
              "internalType": "uint256",
              "name": "itemId",
              "type": "uint256"
            },
            {
              "internalType": "address payable",
              "name": "seller",
              "type": "address"
            },
            {
              "internalType": "address payable",
              "name": "owner",
              "type": "address"
            },
            {
              "internalType": "uint256",
              "name": "price",
              "type": "uint256"
            },
            {
              "internalType": "enum Market.State",
              "name": "state",
              "type": "uint8"
            }
          ],
          "internalType": "struct Market.Item",
          "name": "",
          "type": "tuple"
        }
      ],
      "stateMutability": "view",
      "type": "function",
      "constant": true
    }
  ],
  "bytecode": "0x608060405234801561001057600080fd5b50600160008190555061188b806100286000396000f3fe608060405260043610610072576000357c0100000000000000000000000000000000000000000000000000000000900480630f9b518c14610077578063150b7a02146100ba5780635a0b17b0146100f75780637595af3e14610113578063ad4b9cfb1461013c578063cd2f07101461017e575b600080fd5b34801561008357600080fd5b5061009e60048036038101906100999190611064565b6101bb565b6040516100b1979695949392919061149d565b60405180910390f35b3480156100c657600080fd5b506100e160048036038101906100dc9190610f5e565b61026a565b6040516100ee919061156d565b60405180910390f35b610111600480360381019061010c9190610fd9565b61029a565b005b34801561011f57600080fd5b5061013a60048036038101906101359190611015565b6107c5565b005b34801561014857600080fd5b50610163600480360381019061015e9190611064565b610b15565b6040516101759695949392919061150c565b60405180910390f35b34801561018a57600080fd5b506101a560048036038101906101a09190611064565b610c1d565b6040516101b29190611648565b60405180910390f35b60026020528060005260406000206000915090508060000160009054906101000a900473ffffffffffffffffffffffffffffffffffffffff16908060010154908060020154908060030160009054906101000a900473ffffffffffffffffffffffffffffffffffffffff16908060040160009054906101000a900473ffffffffffffffffffffffffffffffffffffffff16908060050154908060060160009054906101000a900460ff16905087565b600063150b7a027c0100000000000000000000000000000000000000000000000000000000029050949350505050565b600260005414156102e0576040517f08c379a00000000000000000000000000000000000000000000000000000000081526004016102d790611608565b60405180910390fd5b60026000819055503373ffffffffffffffffffffffffffffffffffffffff166002600083815260200190815260200160002060040160009054906101000a900473ffffffffffffffffffffffffffffffffffffffff1673ffffffffffffffffffffffffffffffffffffffff16141561038d576040517f08c379a0000000000000000000000000000000000000000000000000000000008152600401610384906115a8565b60405180910390fd5b6001808111156103c6577f4e487b7100000000000000000000000000000000000000000000000000000000600052602160045260246000fd5b6002600083815260200190815260200160002060060160009054906101000a900460ff166001811115610422577f4e487b7100000000000000000000000000000000000000000000000000000000600052602160045260246000fd5b14610462576040517f08c379a0000000000000000000000000000000000000000000000000000000008152600401610459906115e8565b60405180910390fd5b600260008281526020019081526020016000206005015434146104ba576040517f08c379a00000000000000000000000000000000000000000000000000000000081526004016104b190611628565b60405180910390fd5b8173ffffffffffffffffffffffffffffffffffffffff166342842e0e303360026000868152602001908152602001600020600101546040518463ffffffff167c0100000000000000000000000000000000000000000000000000000000028152600401610529939291906113f8565b600060405180830381600087803b15801561054357600080fd5b505af1158015610557573d6000803e3d6000fd5b505050508173ffffffffffffffffffffffffffffffffffffffff1663a22cb4653360016040518363ffffffff167c01000000000000000000000000000000000000000000000000000000000281526004016105b3929190611474565b600060405180830381600087803b1580156105cd57600080fd5b505af11580156105e1573d6000803e3d6000fd5b50505050336002600083815260200190815260200160002060040160006101000a81548173ffffffffffffffffffffffffffffffffffffffff021916908373ffffffffffffffffffffffffffffffffffffffff16021790555060006002600083815260200190815260200160002060060160006101000a81548160ff0219169083600181111561069a577f4e487b7100000000000000000000000000000000000000000000000000000000600052602160045260246000fd5b021790555060006002600083815260200190815260200160002060030160009054906101000a900473ffffffffffffffffffffffffffffffffffffffff1673ffffffffffffffffffffffffffffffffffffffff16346040516106fb906113e3565b60006040518083038185875af1925050503d8060008114610738576040519150601f19603f3d011682016040523d82523d6000602084013e61073d565b606091505b5050905080610781576040517f08c379a000000000000000000000000000000000000000000000000000000000815260040161077890611588565b60405180910390fd5b7fd310146b3bfb157d0398c13c6148e51703d73af19167735ab2be4230a2c60975826040516107b09190611663565b60405180910390a15060016000819055505050565b60008111610808576040517f08c379a00000000000000000000000000000000000000000000000000000000081526004016107ff906115c8565b60405180910390fd5b6108126001610df1565b600061081e6001610e07565b90506040518060e001604052808573ffffffffffffffffffffffffffffffffffffffff1681526020018481526020018281526020013373ffffffffffffffffffffffffffffffffffffffff1681526020013373ffffffffffffffffffffffffffffffffffffffff1681526020018381526020016001808111156108ca577f4e487b7100000000000000000000000000000000000000000000000000000000600052602160045260246000fd5b8152506002600083815260200190815260200160002060008201518160000160006101000a81548173ffffffffffffffffffffffffffffffffffffffff021916908373ffffffffffffffffffffffffffffffffffffffff160217905550602082015181600101556040820151816002015560608201518160030160006101000a81548173ffffffffffffffffffffffffffffffffffffffff021916908373ffffffffffffffffffffffffffffffffffffffff16021790555060808201518160040160006101000a81548173ffffffffffffffffffffffffffffffffffffffff021916908373ffffffffffffffffffffffffffffffffffffffff16021790555060a0820151816005015560c08201518160060160006101000a81548160ff02191690836001811115610a24577f4e487b7100000000000000000000000000000000000000000000000000000000600052602160045260246000fd5b02179055509050508373ffffffffffffffffffffffffffffffffffffffff166342842e0e3330866040518463ffffffff167c0100000000000000000000000000000000000000000000000000000000028152600401610a85939291906113f8565b600060405180830381600087803b158015610a9f57600080fd5b505af1158015610ab3573d6000803e3d6000fd5b5050505080838573ffffffffffffffffffffffffffffffffffffffff167f60c443f4a570316d25efb19bbea79aa2e9e913df5829d854c22ca9203dbff847336000876001604051610b07949392919061142f565b60405180910390a450505050565b6000806000806000806002600088815260200190815260200160002060000160009054906101000a900473ffffffffffffffffffffffffffffffffffffffff16955060026000888152602001908152602001600020600101549450600260008881526020019081526020016000206002015493506002600088815260200190815260200160002060030160009054906101000a900473ffffffffffffffffffffffffffffffffffffffff1692506002600088815260200190815260200160002060040160009054906101000a900473ffffffffffffffffffffffffffffffffffffffff1691506002600088815260200190815260200160002060050154905091939550919395565b610c25610e15565b600260008381526020019081526020016000206040518060e00160405290816000820160009054906101000a900473ffffffffffffffffffffffffffffffffffffffff1673ffffffffffffffffffffffffffffffffffffffff1673ffffffffffffffffffffffffffffffffffffffff16815260200160018201548152602001600282015481526020016003820160009054906101000a900473ffffffffffffffffffffffffffffffffffffffff1673ffffffffffffffffffffffffffffffffffffffff1673ffffffffffffffffffffffffffffffffffffffff1681526020016004820160009054906101000a900473ffffffffffffffffffffffffffffffffffffffff1673ffffffffffffffffffffffffffffffffffffffff1673ffffffffffffffffffffffffffffffffffffffff168152602001600582015481526020016006820160009054906101000a900460ff166001811115610dae577f4e487b7100000000000000000000000000000000000000000000000000000000600052602160045260246000fd5b6001811115610de6577f4e487b7100000000000000000000000000000000000000000000000000000000600052602160045260246000fd5b815250509050919050565b6001816000016000828254019250508190555050565b600081600001549050919050565b6040518060e00160405280600073ffffffffffffffffffffffffffffffffffffffff1681526020016000815260200160008152602001600073ffffffffffffffffffffffffffffffffffffffff168152602001600073ffffffffffffffffffffffffffffffffffffffff1681526020016000815260200160006001811115610ec6577f4e487b7100000000000000000000000000000000000000000000000000000000600052602160045260246000fd5b81525090565b6000610edf610eda846116af565b61167e565b905082815260208101848484011115610ef757600080fd5b610f028482856117a6565b509392505050565b600081359050610f1981611827565b92915050565b600082601f830112610f3057600080fd5b8135610f40848260208601610ecc565b91505092915050565b600081359050610f588161183e565b92915050565b60008060008060808587031215610f7457600080fd5b6000610f8287828801610f0a565b9450506020610f9387828801610f0a565b9350506040610fa487828801610f49565b925050606085013567ffffffffffffffff811115610fc157600080fd5b610fcd87828801610f1f565b91505092959194509250565b60008060408385031215610fec57600080fd5b6000610ffa85828601610f0a565b925050602061100b85828601610f49565b9150509250929050565b60008060006060848603121561102a57600080fd5b600061103886828701610f0a565b935050602061104986828701610f49565b925050604061105a86828701610f49565b9150509250925092565b60006020828403121561107657600080fd5b600061108484828501610f49565b91505092915050565b6110968161170d565b82525050565b6110a58161170d565b82525050565b6110b4816116fb565b82525050565b6110c3816116fb565b82525050565b6110d28161171f565b82525050565b6110e18161172b565b82525050565b6110f081611794565b82525050565b6110ff81611794565b82525050565b60006111126025836116ea565b91507f4661696c656420746f207472616e736665722045746820746f2074686520736560008301527f6c6c65722e0000000000000000000000000000000000000000000000000000006020830152604082019050919050565b6000611178602d836116ea565b91507f427579657220616e642053656c6c65722063616e6e6f7420626520746865207360008301527f616d6520616464726573736573000000000000000000000000000000000000006020830152604082019050919050565b60006111de6020836116ea565b91507f5072696365206d7573742062652067726561746572207468616e207a65726f2e6000830152602082019050919050565b600061121e6000836116df565b9150600082019050919050565b60006112386026836116ea565b91507f4974656d20726571756573746564206973206e6f74206c697374656420666f7260008301527f2073616c652e00000000000000000000000000000000000000000000000000006020830152604082019050919050565b600061129e601f836116ea565b91507f5265656e7472616e637947756172643a207265656e7472616e742063616c6c006000830152602082019050919050565b60006112de602a836116ea565b91507f506c65617365207375626d69742074686520636f727265637420616d6f756e7460008301527f206f662065746865722e000000000000000000000000000000000000000000006020830152604082019050919050565b60e08201600082015161134d60008501826110ab565b50602082015161136060208501826113c5565b50604082015161137360408501826113c5565b506060820151611386606085018261108d565b506080820151611399608085018261108d565b5060a08201516113ac60a08501826113c5565b5060c08201516113bf60c08501826110e7565b50505050565b6113ce8161178a565b82525050565b6113dd8161178a565b82525050565b60006113ee82611211565b9150819050919050565b600060608201905061140d60008301866110ba565b61141a60208301856110ba565b61142760408301846113d4565b949350505050565b600060808201905061144460008301876110ba565b61145160208301866110ba565b61145e60408301856113d4565b61146b60608301846110f6565b95945050505050565b600060408201905061148960008301856110ba565b61149660208301846110c9565b9392505050565b600060e0820190506114b2600083018a6110ba565b6114bf60208301896113d4565b6114cc60408301886113d4565b6114d9606083018761109c565b6114e6608083018661109c565b6114f360a08301856113d4565b61150060c08301846110f6565b98975050505050505050565b600060c08201905061152160008301896110ba565b61152e60208301886113d4565b61153b60408301876113d4565b61154860608301866110ba565b61155560808301856110ba565b61156260a08301846113d4565b979650505050505050565b600060208201905061158260008301846110d8565b92915050565b600060208201905081810360008301526115a181611105565b9050919050565b600060208201905081810360008301526115c18161116b565b9050919050565b600060208201905081810360008301526115e1816111d1565b9050919050565b600060208201905081810360008301526116018161122b565b9050919050565b6000602082019050818103600083015261162181611291565b9050919050565b60006020820190508181036000830152611641816112d1565b9050919050565b600060e08201905061165d6000830184611337565b92915050565b600060208201905061167860008301846113d4565b92915050565b6000604051905081810181811067ffffffffffffffff821117156116a5576116a46117e4565b5b8060405250919050565b600067ffffffffffffffff8211156116ca576116c96117e4565b5b601f19601f8301169050602081019050919050565b600081905092915050565b600082825260208201905092915050565b60006117068261176a565b9050919050565b60006117188261176a565b9050919050565b60008115159050919050565b60007fffffffff0000000000000000000000000000000000000000000000000000000082169050919050565b600081905061176582611813565b919050565b600073ffffffffffffffffffffffffffffffffffffffff82169050919050565b6000819050919050565b600061179f82611757565b9050919050565b82818337600083830152505050565b7f4e487b7100000000000000000000000000000000000000000000000000000000600052602160045260246000fd5b7f4e487b7100000000000000000000000000000000000000000000000000000000600052604160045260246000fd5b60028110611824576118236117b5565b5b50565b611830816116fb565b811461183b57600080fd5b50565b6118478161178a565b811461185257600080fd5b5056fea2646970667358221220f17957549cccb13e8b5497fb480814bc886889aed3fa953f6a0f9f05560fab5164736f6c63430008000033",
  "immutableReferences": {},
  "source": "// SPDX-License-Identifier: MIT\npragma solidity ^0.8.0;\n\nimport \"@openzeppelin/contracts/token/ERC721/ERC721.sol\";\nimport \"@openzeppelin/contracts/token/ERC721/utils/ERC721Holder.sol\";\nimport \"@openzeppelin/contracts/utils/Counters.sol\";\nimport '@openzeppelin/contracts/security/ReentrancyGuard.sol';\n\ncontract Market is ERC721Holder, ReentrancyGuard{\n    using Counters for Counters.Counter;\n    Counters.Counter private _itemIds;\n\n    mapping(uint => Item) public nftMap;\n\n    enum State {notForSale, ForSale}\n\n    struct Item {\n        address nftAddress;\n        uint tokenId;\n        uint itemId;\n        address payable seller;\n        address payable owner;\n        uint price;\n        State state;\n    }\n\n    /**\n    Events\n     */\n    event NftListed(\n        address indexed nftAddress,\n        uint indexed tokenId,\n        uint indexed itemId,\n        address seller,\n        address owner,\n        uint price,\n        State state\n    );   \n\n    event NftPurchased(uint _itemId);\n\n    function addToMarket(address nftAddress, uint _tokenId, uint price) public {\n        require(price > 0, \"Price must be greater than zero.\");\n        \n        _itemIds.increment();\n        uint newItemId = _itemIds.current();\n        nftMap[newItemId] = Item({\n            nftAddress: nftAddress,\n            tokenId: _tokenId,\n            itemId: newItemId,\n            seller: payable(msg.sender),\n            owner: payable(msg.sender),\n            price: price,\n            state: State.ForSale\n        });\n\n        IERC721(nftAddress).safeTransferFrom(msg.sender, address(this), _tokenId);\n\n        emit NftListed(nftAddress, _tokenId, newItemId, msg.sender, address(0), price, State.ForSale);\n    }\n\n    function purchaseNft(address nftAddress, uint _itemId) public payable nonReentrant {\n        require(nftMap[_itemId].owner != msg.sender, 'Buyer and Seller cannot be the same addresses');\n        require(nftMap[_itemId].state == State.ForSale, 'Item requested is not listed for sale.');\n        require(msg.value == nftMap[_itemId].price, 'Please submit the correct amount of ether.');\n\n        IERC721(nftAddress).safeTransferFrom(address(this), msg.sender, nftMap[_itemId].tokenId);\n        IERC721(nftAddress).setApprovalForAll(msg.sender, true);\n        nftMap[_itemId].owner = payable(msg.sender);\n        nftMap[_itemId].state = State.notForSale;\n\n        (bool salePriceTransferred, ) = nftMap[_itemId].seller.call{ value: msg.value }('');\n        require(salePriceTransferred, 'Failed to transfer Eth to the seller.');\n\n        emit NftPurchased(_itemId);\n    }\n\n    /**\n    Read Functions\n    */\n   function fetchItem(uint _itemId) public view returns (address nftAddress, uint tokenId, uint itemId, address seller, address owner, uint price) {\n        nftAddress = nftMap[_itemId].nftAddress;\n        tokenId = nftMap[_itemId].tokenId;\n        itemId = nftMap[_itemId].itemId;\n        seller = nftMap[_itemId].seller;\n        owner = nftMap[_itemId].owner;\n        price = nftMap[_itemId].price;\n\n        return (nftAddress, tokenId, itemId, seller, owner, price);\n  }\n\n    function getItemById(uint _itemId) public view returns (Item memory) {\n        return nftMap[_itemId];\n    }\n}",
  "sourcePath": "/mnt/c/Users/Ed/Desktop/consensys2021/exercises/finalProject/blockchain/contracts/Market.sol",
  "compiler": {
    "name": "solc",
    "version": "0.8.0+commit.c7dfd78e.Emscripten.clang"
  },
  "schemaVersion": "3.4.3",
  "updatedAt": "2021-12-03T15:10:30.292Z",
  "networkType": "ethereum",
  "devdoc": {
    "kind": "dev",
    "methods": {
      "onERC721Received(address,address,uint256,bytes)": {
        "details": "See {IERC721Receiver-onERC721Received}. Always returns `IERC721Receiver.onERC721Received.selector`."
      }
    },
    "version": 1
  },
  "userdoc": {
    "events": {
      "NftListed(address,uint256,uint256,address,address,uint256,uint8)": {
        "notice": "Events"
      }
    },
    "kind": "user",
    "methods": {
      "fetchItem(uint256)": {
        "notice": "Read Functions"
      }
    },
    "version": 1
  }
}